{
  "_format": "hh-sol-artifact-1",
  "contractName": "TicketNFT",
  "sourceName": "contracts/TicketNFT.sol",
  "abi": [
    {
      "inputs": [
        {
          "internalType": "string",
          "name": "_name",
          "type": "string"
        },
        {
          "internalType": "string",
          "name": "_symbol",
          "type": "string"
        }
      ],
      "stateMutability": "nonpayable",
      "type": "constructor"
    },
    {
      "inputs": [
        {
          "internalType": "address",
          "name": "sender",
          "type": "address"
        },
        {
          "internalType": "uint256",
          "name": "tokenId",
          "type": "uint256"
        },
        {
          "internalType": "address",
          "name": "owner",
          "type": "address"
        }
      ],
      "name": "ERC721IncorrectOwner",
      "type": "error"
    },
    {
      "inputs": [
        {
          "internalType": "address",
          "name": "operator",
          "type": "address"
        },
        {
          "internalType": "uint256",
          "name": "tokenId",
          "type": "uint256"
        }
      ],
      "name": "ERC721InsufficientApproval",
      "type": "error"
    },
    {
      "inputs": [
        {
          "internalType": "address",
          "name": "approver",
          "type": "address"
        }
      ],
      "name": "ERC721InvalidApprover",
      "type": "error"
    },
    {
      "inputs": [
        {
          "internalType": "address",
          "name": "operator",
          "type": "address"
        }
      ],
      "name": "ERC721InvalidOperator",
      "type": "error"
    },
    {
      "inputs": [
        {
          "internalType": "address",
          "name": "owner",
          "type": "address"
        }
      ],
      "name": "ERC721InvalidOwner",
      "type": "error"
    },
    {
      "inputs": [
        {
          "internalType": "address",
          "name": "receiver",
          "type": "address"
        }
      ],
      "name": "ERC721InvalidReceiver",
      "type": "error"
    },
    {
      "inputs": [
        {
          "internalType": "address",
          "name": "sender",
          "type": "address"
        }
      ],
      "name": "ERC721InvalidSender",
      "type": "error"
    },
    {
      "inputs": [
        {
          "internalType": "uint256",
          "name": "tokenId",
          "type": "uint256"
        }
      ],
      "name": "ERC721NonexistentToken",
      "type": "error"
    },
    {
      "inputs": [
        {
          "internalType": "address",
          "name": "owner",
          "type": "address"
        }
      ],
      "name": "OwnableInvalidOwner",
      "type": "error"
    },
    {
      "inputs": [
        {
          "internalType": "address",
          "name": "account",
          "type": "address"
        }
      ],
      "name": "OwnableUnauthorizedAccount",
      "type": "error"
    },
    {
      "anonymous": false,
      "inputs": [
        {
          "indexed": true,
          "internalType": "address",
          "name": "owner",
          "type": "address"
        },
        {
          "indexed": true,
          "internalType": "address",
          "name": "approved",
          "type": "address"
        },
        {
          "indexed": true,
          "internalType": "uint256",
          "name": "tokenId",
          "type": "uint256"
        }
      ],
      "name": "Approval",
      "type": "event"
    },
    {
      "anonymous": false,
      "inputs": [
        {
          "indexed": true,
          "internalType": "address",
          "name": "owner",
          "type": "address"
        },
        {
          "indexed": true,
          "internalType": "address",
          "name": "operator",
          "type": "address"
        },
        {
          "indexed": false,
          "internalType": "bool",
          "name": "approved",
          "type": "bool"
        }
      ],
      "name": "ApprovalForAll",
      "type": "event"
    },
    {
      "anonymous": false,
      "inputs": [
        {
          "indexed": false,
          "internalType": "uint256",
          "name": "_fromTokenId",
          "type": "uint256"
        },
        {
          "indexed": false,
          "internalType": "uint256",
          "name": "_toTokenId",
          "type": "uint256"
        }
      ],
      "name": "BatchMetadataUpdate",
      "type": "event"
    },
    {
      "anonymous": false,
      "inputs": [
        {
          "indexed": true,
          "internalType": "uint256",
          "name": "eventId",
          "type": "uint256"
        },
        {
          "indexed": false,
          "internalType": "string",
          "name": "name",
          "type": "string"
        },
        {
          "indexed": false,
          "internalType": "uint256",
          "name": "price",
          "type": "uint256"
        },
        {
          "indexed": false,
          "internalType": "uint256",
          "name": "totalTickets",
          "type": "uint256"
        },
        {
          "indexed": true,
          "internalType": "address",
          "name": "vendor",
          "type": "address"
        }
      ],
      "name": "EventCreated",
      "type": "event"
    },
    {
      "anonymous": false,
      "inputs": [
        {
          "indexed": false,
          "internalType": "uint256",
          "name": "_tokenId",
          "type": "uint256"
        }
      ],
      "name": "MetadataUpdate",
      "type": "event"
    },
    {
      "anonymous": false,
      "inputs": [
        {
          "indexed": true,
          "internalType": "address",
          "name": "previousOwner",
          "type": "address"
        },
        {
          "indexed": true,
          "internalType": "address",
          "name": "newOwner",
          "type": "address"
        }
      ],
      "name": "OwnershipTransferred",
      "type": "event"
    },
    {
      "anonymous": false,
      "inputs": [
        {
          "indexed": true,
          "internalType": "uint256",
          "name": "ticketId",
          "type": "uint256"
        },
        {
          "indexed": true,
          "internalType": "uint256",
          "name": "eventId",
          "type": "uint256"
        },
        {
          "indexed": true,
          "internalType": "address",
          "name": "buyer",
          "type": "address"
        },
        {
          "indexed": false,
          "internalType": "uint256",
          "name": "price",
          "type": "uint256"
        }
      ],
      "name": "TicketPurchased",
      "type": "event"
    },
    {
      "anonymous": false,
      "inputs": [
        {
          "indexed": true,
          "internalType": "uint256",
          "name": "ticketId",
          "type": "uint256"
        },
        {
          "indexed": true,
          "internalType": "address",
          "name": "seller",
          "type": "address"
        },
        {
          "indexed": true,
          "internalType": "address",
          "name": "buyer",
          "type": "address"
        },
        {
          "indexed": false,
          "internalType": "uint256",
          "name": "price",
          "type": "uint256"
        }
      ],
      "name": "TicketResold",
      "type": "event"
    },
    {
      "anonymous": false,
      "inputs": [
        {
          "indexed": true,
          "internalType": "address",
          "name": "from",
          "type": "address"
        },
        {
          "indexed": true,
          "internalType": "address",
          "name": "to",
          "type": "address"
        },
        {
          "indexed": true,
          "internalType": "uint256",
          "name": "tokenId",
          "type": "uint256"
        }
      ],
      "name": "Transfer",
      "type": "event"
    },
    {
      "inputs": [
        {
          "internalType": "address",
          "name": "to",
          "type": "address"
        },
        {
          "internalType": "uint256",
          "name": "tokenId",
          "type": "uint256"
        }
      ],
      "name": "approve",
      "outputs": [],
      "stateMutability": "nonpayable",
      "type": "function"
    },
    {
      "inputs": [
        {
          "internalType": "address",
          "name": "owner",
          "type": "address"
        }
      ],
      "name": "balanceOf",
      "outputs": [
        {
          "internalType": "uint256",
          "name": "",
          "type": "uint256"
        }
      ],
      "stateMutability": "view",
      "type": "function"
    },
    {
      "inputs": [
        {
          "internalType": "uint256",
          "name": "_ticketId",
          "type": "uint256"
        }
      ],
      "name": "buyResaleTicket",
      "outputs": [],
      "stateMutability": "payable",
      "type": "function"
    },
    {
      "inputs": [
        {
          "internalType": "string",
          "name": "_name",
          "type": "string"
        },
        {
          "internalType": "string",
          "name": "_description",
          "type": "string"
        },
        {
          "internalType": "uint256",
          "name": "_date",
          "type": "uint256"
        },
        {
          "internalType": "string",
          "name": "_location",
          "type": "string"
        },
        {
          "internalType": "uint256",
          "name": "_ticketPrice",
          "type": "uint256"
        },
        {
          "internalType": "uint256",
          "name": "_totalTickets",
          "type": "uint256"
        },
        {
          "internalType": "string",
          "name": "_eventType",
          "type": "string"
        }
      ],
      "name": "createEvent",
      "outputs": [
        {
          "internalType": "uint256",
          "name": "",
          "type": "uint256"
        }
      ],
      "stateMutability": "nonpayable",
      "type": "function"
    },
    {
      "inputs": [
        {
          "internalType": "uint256",
          "name": "_eventId",
          "type": "uint256"
        },
        {
          "internalType": "address",
          "name": "_attendee",
          "type": "address"
        }
      ],
      "name": "ejectAttendee",
      "outputs": [],
      "stateMutability": "nonpayable",
      "type": "function"
    },
    {
      "inputs": [
        {
          "internalType": "uint256",
          "name": "",
          "type": "uint256"
        }
      ],
      "name": "eventIds",
      "outputs": [
        {
          "internalType": "uint256",
          "name": "",
          "type": "uint256"
        }
      ],
      "stateMutability": "view",
      "type": "function"
    },
    {
      "inputs": [
        {
          "internalType": "uint256",
          "name": "",
          "type": "uint256"
        }
      ],
      "name": "events",
      "outputs": [
        {
          "internalType": "uint256",
          "name": "id",
          "type": "uint256"
        },
        {
          "internalType": "string",
          "name": "name",
          "type": "string"
        },
        {
          "internalType": "string",
          "name": "description",
          "type": "string"
        },
        {
          "internalType": "uint256",
          "name": "date",
          "type": "uint256"
        },
        {
          "internalType": "string",
          "name": "location",
          "type": "string"
        },
        {
          "internalType": "uint256",
          "name": "ticketPrice",
          "type": "uint256"
        },
        {
          "internalType": "uint256",
          "name": "totalTickets",
          "type": "uint256"
        },
        {
          "internalType": "uint256",
          "name": "soldTickets",
          "type": "uint256"
        },
        {
          "internalType": "address",
          "name": "vendor",
          "type": "address"
        },
        {
          "internalType": "string",
          "name": "eventType",
          "type": "string"
        }
      ],
      "stateMutability": "view",
      "type": "function"
    },
    {
      "inputs": [],
      "name": "getAllEvents",
      "outputs": [
        {
          "components": [
            {
              "internalType": "uint256",
              "name": "id",
              "type": "uint256"
            },
            {
              "internalType": "string",
              "name": "name",
              "type": "string"
            },
            {
              "internalType": "string",
              "name": "description",
              "type": "string"
            },
            {
              "internalType": "uint256",
              "name": "date",
              "type": "uint256"
            },
            {
              "internalType": "string",
              "name": "location",
              "type": "string"
            },
            {
              "internalType": "uint256",
              "name": "ticketPrice",
              "type": "uint256"
            },
            {
              "internalType": "uint256",
              "name": "totalTickets",
              "type": "uint256"
            },
            {
              "internalType": "uint256",
              "name": "soldTickets",
              "type": "uint256"
            },
            {
              "internalType": "address",
              "name": "vendor",
              "type": "address"
            },
            {
              "internalType": "string",
              "name": "eventType",
              "type": "string"
            }
          ],
          "internalType": "struct TicketNFT.Event[]",
          "name": "",
          "type": "tuple[]"
        }
      ],
      "stateMutability": "view",
      "type": "function"
    },
    {
      "inputs": [
        {
          "internalType": "uint256",
          "name": "tokenId",
          "type": "uint256"
        }
      ],
      "name": "getApproved",
      "outputs": [
        {
          "internalType": "address",
          "name": "",
          "type": "address"
        }
      ],
      "stateMutability": "view",
      "type": "function"
    },
    {
      "inputs": [
        {
          "internalType": "uint256",
          "name": "_ticketId",
          "type": "uint256"
        }
      ],
      "name": "getTicketInfo",
      "outputs": [
        {
          "components": [
            {
              "internalType": "uint256",
              "name": "ticketId",
              "type": "uint256"
            },
            {
              "internalType": "uint256",
              "name": "eventId",
              "type": "uint256"
            },
            {
              "internalType": "address",
              "name": "owner",
              "type": "address"
            },
            {
              "internalType": "bool",
              "name": "isForSale",
              "type": "bool"
            },
            {
              "internalType": "uint256",
              "name": "salePrice",
              "type": "uint256"
            },
            {
              "internalType": "address",
              "name": "specificBuyer",
              "type": "address"
            },
            {
              "internalType": "bool",
              "name": "hasAttended",
              "type": "bool"
            }
          ],
          "internalType": "struct TicketNFT.Ticket",
          "name": "",
          "type": "tuple"
        }
      ],
      "stateMutability": "view",
      "type": "function"
    },
    {
      "inputs": [
        {
          "internalType": "address",
          "name": "_user",
          "type": "address"
        }
      ],
      "name": "getUserTickets",
      "outputs": [
        {
          "internalType": "uint256[]",
          "name": "",
          "type": "uint256[]"
        }
      ],
      "stateMutability": "view",
      "type": "function"
    },
    {
      "inputs": [
        {
          "internalType": "address",
          "name": "owner",
          "type": "address"
        },
        {
          "internalType": "address",
          "name": "operator",
          "type": "address"
        }
      ],
      "name": "isApprovedForAll",
      "outputs": [
        {
          "internalType": "bool",
          "name": "",
          "type": "bool"
        }
      ],
      "stateMutability": "view",
      "type": "function"
    },
    {
      "inputs": [
        {
          "internalType": "uint256",
          "name": "_ticketId",
          "type": "uint256"
        },
        {
          "internalType": "uint256",
          "name": "_price",
          "type": "uint256"
        },
        {
          "internalType": "address",
          "name": "_specificBuyer",
          "type": "address"
        }
      ],
      "name": "listTicketForSale",
      "outputs": [],
      "stateMutability": "nonpayable",
      "type": "function"
    },
    {
      "inputs": [
        {
          "internalType": "uint256",
          "name": "_ticketId",
          "type": "uint256"
        }
      ],
      "name": "markAttendance",
      "outputs": [],
      "stateMutability": "nonpayable",
      "type": "function"
    },
    {
      "inputs": [],
      "name": "name",
      "outputs": [
        {
          "internalType": "string",
          "name": "",
          "type": "string"
        }
      ],
      "stateMutability": "view",
      "type": "function"
    },
    {
      "inputs": [],
      "name": "owner",
      "outputs": [
        {
          "internalType": "address",
          "name": "",
          "type": "address"
        }
      ],
      "stateMutability": "view",
      "type": "function"
    },
    {
      "inputs": [
        {
          "internalType": "uint256",
          "name": "tokenId",
          "type": "uint256"
        }
      ],
      "name": "ownerOf",
      "outputs": [
        {
          "internalType": "address",
          "name": "",
          "type": "address"
        }
      ],
      "stateMutability": "view",
      "type": "function"
    },
    {
      "inputs": [
        {
          "internalType": "uint256",
          "name": "_eventId",
          "type": "uint256"
        }
      ],
      "name": "purchaseTicket",
      "outputs": [
        {
          "internalType": "uint256",
          "name": "",
          "type": "uint256"
        }
      ],
      "stateMutability": "payable",
      "type": "function"
    },
    {
      "inputs": [],
      "name": "renounceOwnership",
      "outputs": [],
      "stateMutability": "nonpayable",
      "type": "function"
    },
    {
      "inputs": [
        {
          "internalType": "address",
          "name": "from",
          "type": "address"
        },
        {
          "internalType": "address",
          "name": "to",
          "type": "address"
        },
        {
          "internalType": "uint256",
          "name": "tokenId",
          "type": "uint256"
        }
      ],
      "name": "safeTransferFrom",
      "outputs": [],
      "stateMutability": "nonpayable",
      "type": "function"
    },
    {
      "inputs": [
        {
          "internalType": "address",
          "name": "from",
          "type": "address"
        },
        {
          "internalType": "address",
          "name": "to",
          "type": "address"
        },
        {
          "internalType": "uint256",
          "name": "tokenId",
          "type": "uint256"
        },
        {
          "internalType": "bytes",
          "name": "data",
          "type": "bytes"
        }
      ],
      "name": "safeTransferFrom",
      "outputs": [],
      "stateMutability": "nonpayable",
      "type": "function"
    },
    {
      "inputs": [
        {
          "internalType": "address",
          "name": "operator",
          "type": "address"
        },
        {
          "internalType": "bool",
          "name": "approved",
          "type": "bool"
        }
      ],
      "name": "setApprovalForAll",
      "outputs": [],
      "stateMutability": "nonpayable",
      "type": "function"
    },
    {
      "inputs": [
        {
          "internalType": "bytes4",
          "name": "interfaceId",
          "type": "bytes4"
        }
      ],
      "name": "supportsInterface",
      "outputs": [
        {
          "internalType": "bool",
          "name": "",
          "type": "bool"
        }
      ],
      "stateMutability": "view",
      "type": "function"
    },
    {
      "inputs": [],
      "name": "symbol",
      "outputs": [
        {
          "internalType": "string",
          "name": "",
          "type": "string"
        }
      ],
      "stateMutability": "view",
      "type": "function"
    },
    {
      "inputs": [
        {
          "internalType": "uint256",
          "name": "",
          "type": "uint256"
        }
      ],
      "name": "tickets",
      "outputs": [
        {
          "internalType": "uint256",
          "name": "ticketId",
          "type": "uint256"
        },
        {
          "internalType": "uint256",
          "name": "eventId",
          "type": "uint256"
        },
        {
          "internalType": "address",
          "name": "owner",
          "type": "address"
        },
        {
          "internalType": "bool",
          "name": "isForSale",
          "type": "bool"
        },
        {
          "internalType": "uint256",
          "name": "salePrice",
          "type": "uint256"
        },
        {
          "internalType": "address",
          "name": "specificBuyer",
          "type": "address"
        },
        {
          "internalType": "bool",
          "name": "hasAttended",
          "type": "bool"
        }
      ],
      "stateMutability": "view",
      "type": "function"
    },
    {
      "inputs": [
        {
          "internalType": "uint256",
          "name": "tokenId",
          "type": "uint256"
        }
      ],
      "name": "tokenURI",
      "outputs": [
        {
          "internalType": "string",
          "name": "",
          "type": "string"
        }
      ],
      "stateMutability": "view",
      "type": "function"
    },
    {
      "inputs": [
        {
          "internalType": "address",
          "name": "from",
          "type": "address"
        },
        {
          "internalType": "address",
          "name": "to",
          "type": "address"
        },
        {
          "internalType": "uint256",
          "name": "tokenId",
          "type": "uint256"
        }
      ],
      "name": "transferFrom",
      "outputs": [],
      "stateMutability": "nonpayable",
      "type": "function"
    },
    {
      "inputs": [
        {
          "internalType": "address",
          "name": "newOwner",
          "type": "address"
        }
      ],
      "name": "transferOwnership",
      "outputs": [],
      "stateMutability": "nonpayable",
      "type": "function"
    },
    {
      "inputs": [
        {
          "internalType": "address",
          "name": "",
          "type": "address"
        },
        {
          "internalType": "uint256",
          "name": "",
          "type": "uint256"
        }
      ],
      "name": "userTickets",
      "outputs": [
        {
          "internalType": "uint256",
          "name": "",
          "type": "uint256"
        }
      ],
      "stateMutability": "view",
      "type": "function"
    },
    {
      "inputs": [
        {
          "internalType": "uint256",
          "name": "_ticketId",
          "type": "uint256"
        }
      ],
      "name": "verifyTicketOwnership",
      "outputs": [
        {
          "internalType": "bool",
          "name": "",
          "type": "bool"
        }
      ],
      "stateMutability": "view",
      "type": "function"
    }
  ],
  "bytecode": "0x60806040523480156200001157600080fd5b5060405162003006380380620030068339810160408190526200003491620001b1565b3382826000620000458382620002aa565b506001620000548282620002aa565b5050506001600160a01b0381166200008657604051631e4fbdf760e01b81526000600482015260240160405180910390fd5b62000091816200009a565b50505062000376565b600780546001600160a01b038381166001600160a01b0319831681179093556040519116919082907f8be0079c531659141344cd1fd0a4f28419497f9722a3daafe3b4186f6b6457e090600090a35050565b634e487b7160e01b600052604160045260246000fd5b600082601f8301126200011457600080fd5b81516001600160401b0380821115620001315762000131620000ec565b604051601f8301601f19908116603f011681019082821181831017156200015c576200015c620000ec565b816040528381526020925086838588010111156200017957600080fd5b600091505b838210156200019d57858201830151818301840152908201906200017e565b600093810190920192909252949350505050565b60008060408385031215620001c557600080fd5b82516001600160401b0380821115620001dd57600080fd5b620001eb8683870162000102565b935060208501519150808211156200020257600080fd5b50620002118582860162000102565b9150509250929050565b600181811c908216806200023057607f821691505b6020821081036200025157634e487b7160e01b600052602260045260246000fd5b50919050565b601f821115620002a557600081815260208120601f850160051c81016020861015620002805750805b601f850160051c820191505b81811015620002a1578281556001016200028c565b5050505b505050565b81516001600160401b03811115620002c657620002c6620000ec565b620002de81620002d784546200021b565b8462000257565b602080601f831160018114620003165760008415620002fd5750858301515b600019600386901b1c1916600185901b178555620002a1565b600085815260208120601f198616915b82811015620003475788860151825594840194600190910190840162000326565b5085821015620003665787850151600019600388901b60f8161c191681555b5050505050600190811b01905550565b612c8080620003866000396000f3fe6080604052600436106101cd5760003560e01c80638da5cb5b116100f7578063b948348c11610095578063e985e9c511610064578063e985e9c5146105d3578063f2fde38b146105f3578063fb1e2bda14610613578063ff99a0631461063357600080fd5b8063b948348c1461055e578063c27a500d14610571578063c87b56dd14610593578063cf260baf146105b357600080fd5b8063a22cb465116100d1578063a22cb465146104de578063ade4f8a2146104fe578063af5353b61461051e578063b88d4fde1461053e57600080fd5b80638da5cb5b1461048b57806395d89b41146104a9578063998f6ac0146104be57600080fd5b80631fe6db2d1161016f5780636352211e1161013e5780636352211e1461040857806370a0823114610428578063715018a6146104565780637b9fa4351461046b57600080fd5b80631fe6db2d146102f957806323b872dd1461031957806342842e0e1461033957806350b447121461035957600080fd5b8063081812fc116101ab578063081812fc14610256578063095ea7b31461028e5780630b791430146102b05780631d9c5d5c146102e657600080fd5b806301ffc9a7146101d25780630484a22f1461020757806306fdde0314610234575b600080fd5b3480156101de57600080fd5b506101f26101ed3660046123ed565b61076d565b60405190151581526020015b60405180910390f35b34801561021357600080fd5b50610227610222366004612426565b61077e565b6040516101fe9190612441565b34801561024057600080fd5b506102496107ea565b6040516101fe91906124d5565b34801561026257600080fd5b506102766102713660046124e8565b61087c565b6040516001600160a01b0390911681526020016101fe565b34801561029a57600080fd5b506102ae6102a9366004612501565b6108a5565b005b3480156102bc57600080fd5b506102d06102cb3660046124e8565b6108b4565b6040516101fe9a9998979695949392919061252b565b6102ae6102f43660046124e8565b610b2f565b34801561030557600080fd5b506102ae6103143660046125be565b610d71565b34801561032557600080fd5b506102ae6103343660046125f3565b610e14565b34801561034557600080fd5b506102ae6103543660046125f3565b610e9f565b34801561036557600080fd5b506103c56103743660046124e8565b600b6020526000908152604090208054600182015460028301546003840154600490940154929391926001600160a01b038083169360ff600160a01b94859004811694919392831692919091041687565b6040805197885260208801969096526001600160a01b0394851695870195909552911515606086015260808501521660a0830152151560c082015260e0016101fe565b34801561041457600080fd5b506102766104233660046124e8565b610ebf565b34801561043457600080fd5b50610448610443366004612426565b610eca565b6040519081526020016101fe565b34801561046257600080fd5b506102ae610f12565b34801561047757600080fd5b506104486104863660046126db565b610f26565b34801561049757600080fd5b506007546001600160a01b0316610276565b3480156104b557600080fd5b506102496110c4565b3480156104ca57600080fd5b506104486104d93660046124e8565b6110d3565b3480156104ea57600080fd5b506102ae6104f93660046127a5565b6110f4565b34801561050a57600080fd5b506102ae6105193660046124e8565b6110ff565b34801561052a57600080fd5b506101f26105393660046124e8565b611198565b34801561054a57600080fd5b506102ae6105593660046127e1565b6111b4565b61044861056c3660046124e8565b6111cc565b34801561057d57600080fd5b5061058661141d565b6040516101fe919061285d565b34801561059f57600080fd5b506102496105ae3660046124e8565b6117e1565b3480156105bf57600080fd5b506104486105ce366004612501565b6117ec565b3480156105df57600080fd5b506101f26105ee366004612965565b61181d565b3480156105ff57600080fd5b506102ae61060e366004612426565b61184b565b34801561061f57600080fd5b506102ae61062e366004612998565b611889565b34801561063f57600080fd5b5061070561064e3660046124e8565b6040805160e081018252600080825260208201819052918101829052606081018290526080810182905260a0810182905260c0810191909152506000908152600b6020908152604091829020825160e0810184528154815260018201549281019290925260028101546001600160a01b038082169484019490945260ff600160a01b918290048116151560608501526003830154608085015260049092015493841660a0840152909204909116151560c082015290565b6040516101fe9190600060e0820190508251825260208301516020830152604083015160018060a01b038082166040850152606085015115156060850152608085015160808501528060a08601511660a0850152505060c0830151151560c083015292915050565b600061077882611907565b92915050565b6001600160a01b0381166000908152600c60209081526040918290208054835181840281018401909452808452606093928301828280156107de57602002820191906000526020600020905b8154815260200190600101908083116107ca575b50505050509050919050565b6060600080546107f9906129bb565b80601f0160208091040260200160405190810160405280929190818152602001828054610825906129bb565b80156108725780601f1061084757610100808354040283529160200191610872565b820191906000526020600020905b81548152906001019060200180831161085557829003601f168201915b5050505050905090565b60006108878261192c565b506000828152600460205260409020546001600160a01b0316610778565b6108b0828233611965565b5050565b600a60205260009081526040902080546001820180549192916108d6906129bb565b80601f0160208091040260200160405190810160405280929190818152602001828054610902906129bb565b801561094f5780601f106109245761010080835404028352916020019161094f565b820191906000526020600020905b81548152906001019060200180831161093257829003601f168201915b505050505090806002018054610964906129bb565b80601f0160208091040260200160405190810160405280929190818152602001828054610990906129bb565b80156109dd5780601f106109b2576101008083540402835291602001916109dd565b820191906000526020600020905b8154815290600101906020018083116109c057829003601f168201915b5050505050908060030154908060040180546109f8906129bb565b80601f0160208091040260200160405190810160405280929190818152602001828054610a24906129bb565b8015610a715780601f10610a4657610100808354040283529160200191610a71565b820191906000526020600020905b815481529060010190602001808311610a5457829003601f168201915b5050506005840154600685015460078601546008870154600988018054979894979396509194506001600160a01b03169291610aac906129bb565b80601f0160208091040260200160405190810160405280929190818152602001828054610ad8906129bb565b8015610b255780601f10610afa57610100808354040283529160200191610b25565b820191906000526020600020905b815481529060010190602001808311610b0857829003601f168201915b505050505090508a565b6000818152600b602052604090206002810154600160a01b900460ff16610b935760405162461bcd60e51b81526020600482015260136024820152725469636b6574206e6f7420666f722073616c6560681b60448201526064015b60405180910390fd5b8060030154341015610bde5760405162461bcd60e51b8152602060048201526014602482015273125b9cdd59999a58da595b9d081c185e5b595b9d60621b6044820152606401610b8a565b60048101546001600160a01b031615610c445760048101546001600160a01b03163314610c445760405162461bcd60e51b81526020600482015260146024820152732737ba1030baba3437b934bd32b210313abcb2b960611b6044820152606401610b8a565b6000610c4f83610ebf565b9050610c5c813385611972565b6002820180546001600160a81b0319163360ff60a01b1916179055600060038301556004820180546001600160a01b0319169055610c9a8184611a22565b336000908152600c6020908152604082208054600181018255908352908220018490556064610cca346061612a05565b610cd49190612a1c565b90506000610ce28234612a3e565b6040519091506001600160a01b0384169083156108fc029084906000818181858888f19350505050158015610d1b573d6000803e3d6000fd5b50336001600160a01b0316836001600160a01b0316867fd59a36d8310ffb140214be490baf3fe8961f859a17199ec1bf9015c8b734001134604051610d6291815260200190565b60405180910390a45050505050565b33610d7b84610ebf565b6001600160a01b031614610dc45760405162461bcd60e51b815260206004820152601060248201526f2737ba103a34b1b5b2ba1037bbb732b960811b6044820152606401610b8a565b6000928352600b602052604090922060028101805460ff60a01b1916600160a01b179055600381019190915560040180546001600160a01b039092166001600160a01b0319909216919091179055565b6001600160a01b038216610e3e57604051633250574960e11b815260006004820152602401610b8a565b6000610e4b838333611af0565b9050836001600160a01b0316816001600160a01b031614610e99576040516364283d7b60e01b81526001600160a01b0380861660048301526024820184905282166044820152606401610b8a565b50505050565b610eba838383604051806020016040528060008152506111b4565b505050565b60006107788261192c565b60006001600160a01b038216610ef6576040516322718ad960e21b815260006004820152602401610b8a565b506001600160a01b031660009081526003602052604090205490565b610f1a611be9565b610f246000611c16565b565b60088054600091819083610f3983612a51565b9091555050604080516101408101825282815260208082018c81528284018c9052606083018b9052608083018a905260a0830189905260c08301889052600060e08401819052336101008501526101208401889052858152600a9092529290208151815591519091906001820190610fb19082612ab0565b5060408201516002820190610fc69082612ab0565b506060820151600382015560808201516004820190610fe59082612ab0565b5060a0820151600582015560c0820151600682015560e082015160078201556101008201516008820180546001600160a01b0319166001600160a01b0390921691909117905561012082015160098201906110409082612ab0565b5050600d80546001810182556000919091527fd7b6990105719101dabeb77144f2a3385c8033acd3af97e9423a695e81ad1eb50182905550604051339082907f818cdd1d6860d493731be2106680d34811f56c9ed9d66dbf56a7c2dcc59c9be5906110b0908d908a908a90612b70565b60405180910390a398975050505050505050565b6060600180546107f9906129bb565b600d81815481106110e357600080fd5b600091825260209091200154905081565b6108b0338383611c68565b3361110982610ebf565b6001600160a01b0316148061113757503361112c6007546001600160a01b031690565b6001600160a01b0316145b6111745760405162461bcd60e51b815260206004820152600e60248201526d139bdd08185d5d1a1bdc9a5e995960921b6044820152606401610b8a565b6000908152600b60205260409020600401805460ff60a01b1916600160a01b179055565b6000336111a483610ebf565b6001600160a01b03161492915050565b6111bf848484610e14565b610e993385858585611d07565b6000818152600a6020526040812060068101546007820154106112225760405162461bcd60e51b815260206004820152600e60248201526d115d995b9d081cdbdb19081bdd5d60921b6044820152606401610b8a565b806005015434101561126d5760405162461bcd60e51b8152602060048201526014602482015273125b9cdd59999a58da595b9d081c185e5b595b9d60621b6044820152606401610b8a565b60098054908190600061127f83612a51565b919050555061128e3382611e32565b6040805160e0810182528281526020808201878152338385018181526000606086018181526080870182815260a0880183815260c089018481528b8552600b89528a852099518a55965160018a810191909155945160028a01805494511515600160a01b9081026001600160a81b03199687166001600160a01b039485161717909155925160038b015590516004909901805497511515909202969092169790911696909617939093179094558152600c82529283208054928301815583528220018290556007830180549161136383612a51565b90915550600090506064611378346061612a05565b6113829190612a1c565b905060006113908234612a3e565b60088501546040519192506001600160a01b03169083156108fc029084906000818181858888f193505050501580156113cd573d6000803e3d6000fd5b50336001600160a01b031686847fc3b7539e996dc1d1252af1e3c72474162b7a9c7cc7411ca8905732eaf6fff3283460405161140b91815260200190565b60405180910390a45090949350505050565b600d5460609060009067ffffffffffffffff81111561143e5761143e61262f565b6040519080825280602002602001820160405280156114ce57816020015b6114bb604051806101400160405280600081526020016060815260200160608152602001600081526020016060815260200160008152602001600081526020016000815260200160006001600160a01b03168152602001606081525090565b81526020019060019003908161145c5790505b50905060005b600d548110156117db57600a6000600d83815481106114f5576114f5612b95565b906000526020600020015481526020019081526020016000206040518061014001604052908160008201548152602001600182018054611534906129bb565b80601f0160208091040260200160405190810160405280929190818152602001828054611560906129bb565b80156115ad5780601f10611582576101008083540402835291602001916115ad565b820191906000526020600020905b81548152906001019060200180831161159057829003601f168201915b505050505081526020016002820180546115c6906129bb565b80601f01602080910402602001604051908101604052809291908181526020018280546115f2906129bb565b801561163f5780601f106116145761010080835404028352916020019161163f565b820191906000526020600020905b81548152906001019060200180831161162257829003601f168201915b5050505050815260200160038201548152602001600482018054611662906129bb565b80601f016020809104026020016040519081016040528092919081815260200182805461168e906129bb565b80156116db5780601f106116b0576101008083540402835291602001916116db565b820191906000526020600020905b8154815290600101906020018083116116be57829003601f168201915b505050918352505060058201546020820152600682015460408201526007820154606082015260088201546001600160a01b0316608082015260098201805460a090920191611729906129bb565b80601f0160208091040260200160405190810160405280929190818152602001828054611755906129bb565b80156117a25780601f10611777576101008083540402835291602001916117a2565b820191906000526020600020905b81548152906001019060200180831161178557829003601f168201915b5050505050815250508282815181106117bd576117bd612b95565b602002602001018190525080806117d390612a51565b9150506114d4565b50919050565b606061077882611e4c565b600c602052816000526040600020818154811061180857600080fd5b90600052602060002001600091509150505481565b6001600160a01b03918216600090815260056020908152604080832093909416825291909152205460ff1690565b611853611be9565b6001600160a01b03811661187d57604051631e4fbdf760e01b815260006004820152602401610b8a565b61188681611c16565b50565b6000828152600a60205260409020600801546001600160a01b03163314806118ca5750336118bf6007546001600160a01b031690565b6001600160a01b0316145b6108b05760405162461bcd60e51b815260206004820152600e60248201526d139bdd08185d5d1a1bdc9a5e995960921b6044820152606401610b8a565b60006001600160e01b03198216632483248360e11b1480610778575061077882611f5d565b6000818152600260205260408120546001600160a01b03168061077857604051637e27328960e01b815260048101849052602401610b8a565b610eba8383836001611fad565b6001600160a01b03821661199c57604051633250574960e11b815260006004820152602401610b8a565b60006119aa83836000611af0565b90506001600160a01b0381166119d657604051637e27328960e01b815260048101839052602401610b8a565b836001600160a01b0316816001600160a01b031614610e99576040516364283d7b60e01b81526001600160a01b0380861660048301526024820184905282166044820152606401610b8a565b6001600160a01b0382166000908152600c60205260408120905b8154811015610e995782828281548110611a5857611a58612b95565b906000526020600020015403611ade5781548290611a7890600190612a3e565b81548110611a8857611a88612b95565b9060005260206000200154828281548110611aa557611aa5612b95565b906000526020600020018190555081805480611ac357611ac3612bab565b60019003818190600052602060002001600090559055610e99565b80611ae881612a51565b915050611a3c565b6000828152600260205260408120546001600160a01b0390811690831615611b1d57611b1d8184866120b3565b6001600160a01b03811615611b5b57611b3a600085600080611fad565b6001600160a01b038116600090815260036020526040902080546000190190555b6001600160a01b03851615611b8a576001600160a01b0385166000908152600360205260409020805460010190555b60008481526002602052604080822080546001600160a01b0319166001600160a01b0389811691821790925591518793918516917fddf252ad1be2c89b69c2b068fc378daa952ba7f163c4a11628f55a4df523b3ef91a4949350505050565b6007546001600160a01b03163314610f245760405163118cdaa760e01b8152336004820152602401610b8a565b600780546001600160a01b038381166001600160a01b0319831681179093556040519116919082907f8be0079c531659141344cd1fd0a4f28419497f9722a3daafe3b4186f6b6457e090600090a35050565b6001600160a01b038216611c9a57604051630b61174360e31b81526001600160a01b0383166004820152602401610b8a565b6001600160a01b03838116600081815260056020908152604080832094871680845294825291829020805460ff191686151590811790915591519182527f17307eab39ab6107e8899845ad3d59bd9653f200f220920489ca2b5937696c31910160405180910390a3505050565b6001600160a01b0383163b15611e2b57604051630a85bd0160e11b81526001600160a01b0384169063150b7a0290611d49908890889087908790600401612bc1565b6020604051808303816000875af1925050508015611d84575060408051601f3d908101601f19168201909252611d8191810190612bfe565b60015b611ded573d808015611db2576040519150601f19603f3d011682016040523d82523d6000602084013e611db7565b606091505b508051600003611de557604051633250574960e11b81526001600160a01b0385166004820152602401610b8a565b805181602001fd5b6001600160e01b03198116630a85bd0160e11b14611e2957604051633250574960e11b81526001600160a01b0385166004820152602401610b8a565b505b5050505050565b6108b0828260405180602001604052806000815250612117565b6060611e578261192c565b5060008281526006602052604081208054611e71906129bb565b80601f0160208091040260200160405190810160405280929190818152602001828054611e9d906129bb565b8015611eea5780601f10611ebf57610100808354040283529160200191611eea565b820191906000526020600020905b815481529060010190602001808311611ecd57829003601f168201915b505050505090506000611f0860408051602081019091526000815290565b90508051600003611f1a575092915050565b815115611f4c578082604051602001611f34929190612c1b565b60405160208183030381529060405292505050919050565b611f558461212f565b949350505050565b60006001600160e01b031982166380ac58cd60e01b1480611f8e57506001600160e01b03198216635b5e139f60e01b145b8061077857506301ffc9a760e01b6001600160e01b0319831614610778565b8080611fc157506001600160a01b03821615155b15612083576000611fd18461192c565b90506001600160a01b03831615801590611ffd5750826001600160a01b0316816001600160a01b031614155b8015612010575061200e818461181d565b155b156120395760405163a9fbf51f60e01b81526001600160a01b0384166004820152602401610b8a565b81156120815783856001600160a01b0316826001600160a01b03167f8c5be1e5ebec7d5bd14f71427d1e84f3dd0314c0f7b2291e5b200ac8c7c3b92560405160405180910390a45b505b5050600090815260046020526040902080546001600160a01b0319166001600160a01b0392909216919091179055565b6120be8383836121a4565b610eba576001600160a01b0383166120ec57604051637e27328960e01b815260048101829052602401610b8a565b60405163177e802f60e01b81526001600160a01b038316600482015260248101829052604401610b8a565b6121218383612207565b610eba336000858585611d07565b606061213a8261192c565b50600061215260408051602081019091526000815290565b90506000815111612172576040518060200160405280600081525061219d565b8061217c8461226c565b60405160200161218d929190612c1b565b6040516020818303038152906040525b9392505050565b60006001600160a01b03831615801590611f555750826001600160a01b0316846001600160a01b031614806121de57506121de848461181d565b80611f555750506000908152600460205260409020546001600160a01b03908116911614919050565b6001600160a01b03821661223157604051633250574960e11b815260006004820152602401610b8a565b600061223f83836000611af0565b90506001600160a01b03811615610eba576040516339e3563760e11b815260006004820152602401610b8a565b60606000612279836122ff565b600101905060008167ffffffffffffffff8111156122995761229961262f565b6040519080825280601f01601f1916602001820160405280156122c3576020820181803683370190505b5090508181016020015b600019016f181899199a1a9b1b9c1cb0b131b232b360811b600a86061a8153600a85049450846122cd57509392505050565b60008072184f03e93ff9f4daa797ed6e38ed64bf6a1f0160401b831061233e5772184f03e93ff9f4daa797ed6e38ed64bf6a1f0160401b830492506040015b6d04ee2d6d415b85acef8100000000831061236a576d04ee2d6d415b85acef8100000000830492506020015b662386f26fc10000831061238857662386f26fc10000830492506010015b6305f5e10083106123a0576305f5e100830492506008015b61271083106123b457612710830492506004015b606483106123c6576064830492506002015b600a83106107785760010192915050565b6001600160e01b03198116811461188657600080fd5b6000602082840312156123ff57600080fd5b813561219d816123d7565b80356001600160a01b038116811461242157600080fd5b919050565b60006020828403121561243857600080fd5b61219d8261240a565b6020808252825182820181905260009190848201906040850190845b818110156124795783518352928401929184019160010161245d565b50909695505050505050565b60005b838110156124a0578181015183820152602001612488565b50506000910152565b600081518084526124c1816020860160208601612485565b601f01601f19169290920160200192915050565b60208152600061219d60208301846124a9565b6000602082840312156124fa57600080fd5b5035919050565b6000806040838503121561251457600080fd5b61251d8361240a565b946020939093013593505050565b60006101408c83528060208401526125458184018d6124a9565b90508281036040840152612559818c6124a9565b90508960608401528281036080840152612573818a6124a9565b60a0840189905260c0840188905260e084018790526001600160a01b03861661010085015283810361012085015290506125ad81856124a9565b9d9c50505050505050505050505050565b6000806000606084860312156125d357600080fd5b83359250602084013591506125ea6040850161240a565b90509250925092565b60008060006060848603121561260857600080fd5b6126118461240a565b925061261f6020850161240a565b9150604084013590509250925092565b634e487b7160e01b600052604160045260246000fd5b600067ffffffffffffffff808411156126605761266061262f565b604051601f8501601f19908116603f011681019082821181831017156126885761268861262f565b816040528093508581528686860111156126a157600080fd5b858560208301376000602087830101525050509392505050565b600082601f8301126126cc57600080fd5b61219d83833560208501612645565b600080600080600080600060e0888a0312156126f657600080fd5b873567ffffffffffffffff8082111561270e57600080fd5b61271a8b838c016126bb565b985060208a013591508082111561273057600080fd5b61273c8b838c016126bb565b975060408a0135965060608a013591508082111561275957600080fd5b6127658b838c016126bb565b955060808a0135945060a08a0135935060c08a013591508082111561278957600080fd5b506127968a828b016126bb565b91505092959891949750929550565b600080604083850312156127b857600080fd5b6127c18361240a565b9150602083013580151581146127d657600080fd5b809150509250929050565b600080600080608085870312156127f757600080fd5b6128008561240a565b935061280e6020860161240a565b925060408501359150606085013567ffffffffffffffff81111561283157600080fd5b8501601f8101871361284257600080fd5b61285187823560208401612645565b91505092959194509250565b60006020808301818452808551808352604092508286019150828160051b87010184880160005b8381101561295757603f1989840301855281516101408151855288820151818a8701526128b3828701826124a9565b91505087820151858203898701526128cb82826124a9565b9150506060808301518187015250608080830151868303828801526128f083826124a9565b60a0858101519089015260c0808601519089015260e08086015190890152610100808601516001600160a01b031690890152610120948501518882039589019590955292506129439150829050836124a9565b968901969450505090860190600101612884565b509098975050505050505050565b6000806040838503121561297857600080fd5b6129818361240a565b915061298f6020840161240a565b90509250929050565b600080604083850312156129ab57600080fd5b8235915061298f6020840161240a565b600181811c908216806129cf57607f821691505b6020821081036117db57634e487b7160e01b600052602260045260246000fd5b634e487b7160e01b600052601160045260246000fd5b8082028115828204841417610778576107786129ef565b600082612a3957634e487b7160e01b600052601260045260246000fd5b500490565b81810381811115610778576107786129ef565b600060018201612a6357612a636129ef565b5060010190565b601f821115610eba57600081815260208120601f850160051c81016020861015612a915750805b601f850160051c820191505b81811015611e2957828155600101612a9d565b815167ffffffffffffffff811115612aca57612aca61262f565b612ade81612ad884546129bb565b84612a6a565b602080601f831160018114612b135760008415612afb5750858301515b600019600386901b1c1916600185901b178555611e29565b600085815260208120601f198616915b82811015612b4257888601518255948401946001909101908401612b23565b5085821015612b605787850151600019600388901b60f8161c191681555b5050505050600190811b01905550565b606081526000612b8360608301866124a9565b60208301949094525060400152919050565b634e487b7160e01b600052603260045260246000fd5b634e487b7160e01b600052603160045260246000fd5b6001600160a01b0385811682528416602082015260408101839052608060608201819052600090612bf4908301846124a9565b9695505050505050565b600060208284031215612c1057600080fd5b815161219d816123d7565b60008351612c2d818460208801612485565b835190830190612c41818360208801612485565b0194935050505056fea264697066735822122056c5a3f522687389d11911d793c4919599a188f29ac7eea3913b5bc18d02977664736f6c63430008140033",
  "linkReferences": {},
  "deployedLinkReferences": {}
}